{
  "_format": "hh-sol-artifact-1",
  "contractName": "MedicineSupplyChain",
  "sourceName": "contracts/meds.sol",
  "abi": [
    {
      "inputs": [
        {
          "internalType": "string",
          "name": "_manufacturerName",
          "type": "string"
        },
        {
          "internalType": "string",
          "name": "_manufacturerLoaction",
          "type": "string"
        },
        {
          "internalType": "string",
          "name": "_batchId",
          "type": "string"
        }
      ],
      "stateMutability": "nonpayable",
      "type": "constructor"
    },
    {
      "inputs": [
        {
          "internalType": "string",
          "name": "_medicineId",
          "type": "string"
        }
      ],
      "name": "addCustomer",
      "outputs": [],
      "stateMutability": "nonpayable",
      "type": "function"
    },
    {
      "inputs": [
        {
          "internalType": "string",
          "name": "_medicineId",
          "type": "string"
        }
      ],
      "name": "addRetailer",
      "outputs": [],
      "stateMutability": "nonpayable",
      "type": "function"
    },
    {
      "inputs": [
        {
          "internalType": "string",
          "name": "_medicineId",
          "type": "string"
        }
      ],
      "name": "addShopkeeper",
      "outputs": [],
      "stateMutability": "nonpayable",
      "type": "function"
    },
    {
      "inputs": [
        {
          "internalType": "string",
          "name": "_customerName",
          "type": "string"
        },
        {
          "internalType": "uint256",
          "name": "_purchasingDate",
          "type": "uint256"
        }
      ],
      "name": "createCustomer",
      "outputs": [],
      "stateMutability": "nonpayable",
      "type": "function"
    },
    {
      "inputs": [
        {
          "internalType": "string",
          "name": "_id",
          "type": "string"
        },
        {
          "internalType": "string",
          "name": "_name",
          "type": "string"
        },
        {
          "internalType": "uint256",
          "name": "_dose",
          "type": "uint256"
        },
        {
          "internalType": "uint256",
          "name": "_mnfDate",
          "type": "uint256"
        },
        {
          "internalType": "uint256",
          "name": "_expDate",
          "type": "uint256"
        },
        {
          "internalType": "uint256",
          "name": "_quantity",
          "type": "uint256"
        },
        {
          "internalType": "string[]",
          "name": "_temp",
          "type": "string[]"
        }
      ],
      "name": "createMedicine",
      "outputs": [],
      "stateMutability": "nonpayable",
      "type": "function"
    },
    {
      "inputs": [
        {
          "internalType": "string",
          "name": "_retailerName",
          "type": "string"
        },
        {
          "internalType": "string",
          "name": "_retailerLocation",
          "type": "string"
        },
        {
          "internalType": "uint256",
          "name": "_receivingDate",
          "type": "uint256"
        }
      ],
      "name": "createRetailer",
      "outputs": [],
      "stateMutability": "nonpayable",
      "type": "function"
    },
    {
      "inputs": [
        {
          "internalType": "string",
          "name": "_shopkeeperName",
          "type": "string"
        },
        {
          "internalType": "string",
          "name": "_shopkeeperLoacation",
          "type": "string"
        },
        {
          "internalType": "uint256",
          "name": "_receivingDate",
          "type": "uint256"
        }
      ],
      "name": "createShopkeeper",
      "outputs": [],
      "stateMutability": "nonpayable",
      "type": "function"
    },
    {
      "inputs": [
        {
          "internalType": "address",
          "name": "check",
          "type": "address"
        }
      ],
      "name": "getCustomerDetails",
      "outputs": [
        {
          "internalType": "address",
          "name": "",
          "type": "address"
        },
        {
          "internalType": "string",
          "name": "",
          "type": "string"
        },
        {
          "internalType": "uint256",
          "name": "",
          "type": "uint256"
        }
      ],
      "stateMutability": "view",
      "type": "function"
    },
    {
      "inputs": [],
      "name": "getManufactureDetails",
      "outputs": [
        {
          "internalType": "string",
          "name": "",
          "type": "string"
        },
        {
          "internalType": "address",
          "name": "",
          "type": "address"
        },
        {
          "internalType": "string",
          "name": "",
          "type": "string"
        },
        {
          "internalType": "string",
          "name": "",
          "type": "string"
        }
      ],
      "stateMutability": "view",
      "type": "function"
    },
    {
      "inputs": [
        {
          "internalType": "string",
          "name": "check",
          "type": "string"
        }
      ],
      "name": "getMedicineDetails",
      "outputs": [
        {
          "internalType": "string",
          "name": "",
          "type": "string"
        },
        {
          "internalType": "string",
          "name": "",
          "type": "string"
        },
        {
          "internalType": "uint256",
          "name": "",
          "type": "uint256"
        },
        {
          "internalType": "uint256",
          "name": "",
          "type": "uint256"
        },
        {
          "internalType": "uint256",
          "name": "",
          "type": "uint256"
        },
        {
          "internalType": "uint256",
          "name": "",
          "type": "uint256"
        },
        {
          "internalType": "string[]",
          "name": "",
          "type": "string[]"
        }
      ],
      "stateMutability": "view",
      "type": "function"
    },
    {
      "inputs": [],
      "name": "getMeds",
      "outputs": [
        {
          "internalType": "string[]",
          "name": "",
          "type": "string[]"
        }
      ],
      "stateMutability": "view",
      "type": "function"
    },
    {
      "inputs": [
        {
          "internalType": "address",
          "name": "check",
          "type": "address"
        }
      ],
      "name": "getRetailerDetails",
      "outputs": [
        {
          "internalType": "address",
          "name": "",
          "type": "address"
        },
        {
          "internalType": "string",
          "name": "",
          "type": "string"
        },
        {
          "internalType": "string",
          "name": "",
          "type": "string"
        },
        {
          "internalType": "uint256",
          "name": "",
          "type": "uint256"
        }
      ],
      "stateMutability": "view",
      "type": "function"
    },
    {
      "inputs": [
        {
          "internalType": "address",
          "name": "check",
          "type": "address"
        }
      ],
      "name": "getShopkeeperDetails",
      "outputs": [
        {
          "internalType": "address",
          "name": "",
          "type": "address"
        },
        {
          "internalType": "string",
          "name": "",
          "type": "string"
        },
        {
          "internalType": "string",
          "name": "",
          "type": "string"
        },
        {
          "internalType": "uint256",
          "name": "",
          "type": "uint256"
        }
      ],
      "stateMutability": "view",
      "type": "function"
    },
    {
      "inputs": [
        {
          "internalType": "string",
          "name": "check",
          "type": "string"
        }
      ],
      "name": "getStock",
      "outputs": [
        {
          "internalType": "string[]",
          "name": "",
          "type": "string[]"
        }
      ],
      "stateMutability": "view",
      "type": "function"
    },
    {
      "inputs": [
        {
          "internalType": "string",
          "name": "check",
          "type": "string"
        }
      ],
      "name": "getTrackingDetails",
      "outputs": [
        {
          "internalType": "string",
          "name": "",
          "type": "string"
        },
        {
          "internalType": "address",
          "name": "",
          "type": "address"
        },
        {
          "internalType": "address",
          "name": "",
          "type": "address"
        },
        {
          "internalType": "address",
          "name": "",
          "type": "address"
        },
        {
          "internalType": "address",
          "name": "",
          "type": "address"
        }
      ],
      "stateMutability": "view",
      "type": "function"
    }
  ],
  "bytecode": "0x60806040523480156200001157600080fd5b5060405162003ac938038062003ac983398181016040528101906200003791906200024a565b82600090816200004891906200054e565b5033600160006101000a81548173ffffffffffffffffffffffffffffffffffffffff021916908373ffffffffffffffffffffffffffffffffffffffff16021790555081600290816200009b91906200054e565b508060039081620000ad91906200054e565b5050505062000635565b6000604051905090565b600080fd5b600080fd5b600080fd5b600080fd5b6000601f19601f8301169050919050565b7f4e487b7100000000000000000000000000000000000000000000000000000000600052604160045260246000fd5b6200012082620000d5565b810181811067ffffffffffffffff82111715620001425762000141620000e6565b5b80604052505050565b600062000157620000b7565b905062000165828262000115565b919050565b600067ffffffffffffffff821115620001885762000187620000e6565b5b6200019382620000d5565b9050602081019050919050565b60005b83811015620001c0578082015181840152602081019050620001a3565b60008484015250505050565b6000620001e3620001dd846200016a565b6200014b565b905082815260208101848484011115620002025762000201620000d0565b5b6200020f848285620001a0565b509392505050565b600082601f8301126200022f576200022e620000cb565b5b815162000241848260208601620001cc565b91505092915050565b600080600060608486031215620002665762000265620000c1565b5b600084015167ffffffffffffffff811115620002875762000286620000c6565b5b620002958682870162000217565b935050602084015167ffffffffffffffff811115620002b957620002b8620000c6565b5b620002c78682870162000217565b925050604084015167ffffffffffffffff811115620002eb57620002ea620000c6565b5b620002f98682870162000217565b9150509250925092565b600081519050919050565b7f4e487b7100000000000000000000000000000000000000000000000000000000600052602260045260246000fd5b600060028204905060018216806200035657607f821691505b6020821081036200036c576200036b6200030e565b5b50919050565b60008190508160005260206000209050919050565b60006020601f8301049050919050565b600082821b905092915050565b600060088302620003d67fffffffffffffffffffffffffffffffffffffffffffffffffffffffffffffffff8262000397565b620003e2868362000397565b95508019841693508086168417925050509392505050565b6000819050919050565b6000819050919050565b60006200042f620004296200042384620003fa565b62000404565b620003fa565b9050919050565b6000819050919050565b6200044b836200040e565b620004636200045a8262000436565b848454620003a4565b825550505050565b600090565b6200047a6200046b565b6200048781848462000440565b505050565b5b81811015620004af57620004a360008262000470565b6001810190506200048d565b5050565b601f821115620004fe57620004c88162000372565b620004d38462000387565b81016020851015620004e3578190505b620004fb620004f28562000387565b8301826200048c565b50505b505050565b600082821c905092915050565b6000620005236000198460080262000503565b1980831691505092915050565b60006200053e838362000510565b9150826002028217905092915050565b620005598262000303565b67ffffffffffffffff811115620005755762000574620000e6565b5b6200058182546200033d565b6200058e828285620004b3565b600060209050601f831160018114620005c65760008415620005b1578287015190505b620005bd858262000530565b8655506200062d565b601f198416620005d68662000372565b60005b828110156200060057848901518255600182019150602085019450602081019050620005d9565b868310156200062057848901516200061c601f89168262000510565b8355505b6001600288020188555050505b505050505050565b61348480620006456000396000f3fe608060405234801561001057600080fd5b50600436106100f55760003560e01c806395d0040711610097578063bc6c963b11610066578063bc6c963b146102a9578063ca7a7b7a146102c5578063d132ec66146102f5578063d7c971bd14610313576100f5565b806395d004071461020857806396dd3f7414610224578063adcd1dcd14610257578063b6341b1d1461028d576100f5565b8063251fdbd7116100d3578063251fdbd71461016957806363ba8315146101855780636c10bae3146101b85780639202d8aa146101ec576100f5565b806303dd3d81146100fa5780630c60f83d146101165780631b40996914610148575b600080fd5b610114600480360381019061010f91906123d8565b61032f565b005b610130600480360381019061012b919061247f565b61041e565b60405161013f93929190612553565b60405180910390f35b610150610675565b6040516101609493929190612591565b60405180910390f35b610183600480360381019061017e9190612617565b610857565b005b61019f600480360381019061019a919061247f565b610a20565b6040516101af9493929190612673565b60405180910390f35b6101d260048036038101906101cd91906123d8565b610d48565b6040516101e39594939291906126c6565b60405180910390f35b61020660048036038101906102019190612720565b610f83565b005b610222600480360381019061021d91906123d8565b611169565b005b61023e6004803603810190610239919061247f565b611258565b60405161024e9493929190612673565b60405180910390f35b610271600480360381019061026c91906123d8565b611580565b60405161028497969594939291906128b7565b60405180910390f35b6102a760048036038101906102a29190612720565b611928565b005b6102c360048036038101906102be91906123d8565b611b0e565b005b6102df60048036038101906102da91906123d8565b611bfd565b6040516102ec919061293b565b60405180910390f35b6102fd611cf7565b60405161030a919061293b565b60405180910390f35b61032d60048036038101906103289190612a43565b611dd0565b005b600760003373ffffffffffffffffffffffffffffffffffffffff1673ffffffffffffffffffffffffffffffffffffffff16815260200190815260200160002060009054906101000a900460ff166103bb576040517f08c379a00000000000000000000000000000000000000000000000000000000081526004016103b290612b85565b60405180910390fd5b33600e826040516103cc9190612be1565b908152602001604051809103902060040160006101000a81548173ffffffffffffffffffffffffffffffffffffffff021916908373ffffffffffffffffffffffffffffffffffffffff16021790555050565b600060606000600d60008573ffffffffffffffffffffffffffffffffffffffff1673ffffffffffffffffffffffffffffffffffffffff16815260200190815260200160002060000160009054906101000a900473ffffffffffffffffffffffffffffffffffffffff1673ffffffffffffffffffffffffffffffffffffffff168473ffffffffffffffffffffffffffffffffffffffff16146104f4576040517f08c379a00000000000000000000000000000000000000000000000000000000081526004016104eb90612c44565b60405180910390fd5b600d60008573ffffffffffffffffffffffffffffffffffffffff1673ffffffffffffffffffffffffffffffffffffffff16815260200190815260200160002060000160009054906101000a900473ffffffffffffffffffffffffffffffffffffffff16600d60008673ffffffffffffffffffffffffffffffffffffffff1673ffffffffffffffffffffffffffffffffffffffff168152602001908152602001600020600101600d60008773ffffffffffffffffffffffffffffffffffffffff1673ffffffffffffffffffffffffffffffffffffffff168152602001908152602001600020600201548180546105e890612c93565b80601f016020809104026020016040519081016040528092919081815260200182805461061490612c93565b80156106615780601f1061063657610100808354040283529160200191610661565b820191906000526020600020905b81548152906001019060200180831161064457829003601f168201915b505050505091509250925092509193909250565b606060006060806000600160009054906101000a900473ffffffffffffffffffffffffffffffffffffffff16600260038380546106b190612c93565b80601f01602080910402602001604051908101604052809291908181526020018280546106dd90612c93565b801561072a5780601f106106ff5761010080835404028352916020019161072a565b820191906000526020600020905b81548152906001019060200180831161070d57829003601f168201915b5050505050935081805461073d90612c93565b80601f016020809104026020016040519081016040528092919081815260200182805461076990612c93565b80156107b65780601f1061078b576101008083540402835291602001916107b6565b820191906000526020600020905b81548152906001019060200180831161079957829003601f168201915b505050505091508080546107c990612c93565b80601f01602080910402602001604051908101604052809291908181526020018280546107f590612c93565b80156108425780601f1061081757610100808354040283529160200191610842565b820191906000526020600020905b81548152906001019060200180831161082557829003601f168201915b50505050509050935093509350935090919293565b600760003373ffffffffffffffffffffffffffffffffffffffff1673ffffffffffffffffffffffffffffffffffffffff16815260200190815260200160002060009054906101000a900460ff16156108e4576040517f08c379a00000000000000000000000000000000000000000000000000000000081526004016108db90612d10565b60405180910390fd5b600060405180606001604052803373ffffffffffffffffffffffffffffffffffffffff16815260200184815260200183815250905080600d60003373ffffffffffffffffffffffffffffffffffffffff1673ffffffffffffffffffffffffffffffffffffffff16815260200190815260200160002060008201518160000160006101000a81548173ffffffffffffffffffffffffffffffffffffffff021916908373ffffffffffffffffffffffffffffffffffffffff16021790555060208201518160010190816109b59190612edc565b50604082015181600201559050506001600760003373ffffffffffffffffffffffffffffffffffffffff1673ffffffffffffffffffffffffffffffffffffffff16815260200190815260200160002060006101000a81548160ff021916908315150217905550505050565b60006060806000600b60008673ffffffffffffffffffffffffffffffffffffffff1673ffffffffffffffffffffffffffffffffffffffff16815260200190815260200160002060000160009054906101000a900473ffffffffffffffffffffffffffffffffffffffff1673ffffffffffffffffffffffffffffffffffffffff168573ffffffffffffffffffffffffffffffffffffffff1614610af7576040517f08c379a0000000000000000000000000000000000000000000000000000000008152600401610aee90612ffa565b60405180910390fd5b600b60008673ffffffffffffffffffffffffffffffffffffffff1673ffffffffffffffffffffffffffffffffffffffff16815260200190815260200160002060000160009054906101000a900473ffffffffffffffffffffffffffffffffffffffff16600b60008773ffffffffffffffffffffffffffffffffffffffff1673ffffffffffffffffffffffffffffffffffffffff168152602001908152602001600020600101600b60008873ffffffffffffffffffffffffffffffffffffffff1673ffffffffffffffffffffffffffffffffffffffff168152602001908152602001600020600201600b60008973ffffffffffffffffffffffffffffffffffffffff1673ffffffffffffffffffffffffffffffffffffffff16815260200190815260200160002060030154828054610c2d90612c93565b80601f0160208091040260200160405190810160405280929190818152602001828054610c5990612c93565b8015610ca65780601f10610c7b57610100808354040283529160200191610ca6565b820191906000526020600020905b815481529060010190602001808311610c8957829003601f168201915b50505050509250818054610cb990612c93565b80601f0160208091040260200160405190810160405280929190818152602001828054610ce590612c93565b8015610d325780601f10610d0757610100808354040283529160200191610d32565b820191906000526020600020905b815481529060010190602001808311610d1557829003601f168201915b5050505050915093509350935093509193509193565b6060600080600080600886604051610d609190612be1565b908152602001604051809103902060009054906101000a900460ff16610dbb576040517f08c379a0000000000000000000000000000000000000000000000000000000008152600401610db290613066565b60405180910390fd5b600e86604051610dcb9190612be1565b9081526020016040518091039020600001600e87604051610dec9190612be1565b908152602001604051809103902060010160009054906101000a900473ffffffffffffffffffffffffffffffffffffffff16600e88604051610e2e9190612be1565b908152602001604051809103902060020160009054906101000a900473ffffffffffffffffffffffffffffffffffffffff16600e89604051610e709190612be1565b908152602001604051809103902060030160009054906101000a900473ffffffffffffffffffffffffffffffffffffffff16600e8a604051610eb29190612be1565b908152602001604051809103902060040160009054906101000a900473ffffffffffffffffffffffffffffffffffffffff16848054610ef090612c93565b80601f0160208091040260200160405190810160405280929190818152602001828054610f1c90612c93565b8015610f695780601f10610f3e57610100808354040283529160200191610f69565b820191906000526020600020905b815481529060010190602001808311610f4c57829003601f168201915b505050505094509450945094509450945091939590929450565b600660003373ffffffffffffffffffffffffffffffffffffffff1673ffffffffffffffffffffffffffffffffffffffff16815260200190815260200160002060009054906101000a900460ff1615611010576040517f08c379a0000000000000000000000000000000000000000000000000000000008152600401611007906130d2565b60405180910390fd5b600060405180608001604052803373ffffffffffffffffffffffffffffffffffffffff16815260200185815260200184815260200183815250905080600c60003373ffffffffffffffffffffffffffffffffffffffff1673ffffffffffffffffffffffffffffffffffffffff16815260200190815260200160002060008201518160000160006101000a81548173ffffffffffffffffffffffffffffffffffffffff021916908373ffffffffffffffffffffffffffffffffffffffff16021790555060208201518160010190816110e79190612edc565b5060408201518160020190816110fd9190612edc565b50606082015181600301559050506001600660003373ffffffffffffffffffffffffffffffffffffffff1673ffffffffffffffffffffffffffffffffffffffff16815260200190815260200160002060006101000a81548160ff02191690831515021790555050505050565b600560003373ffffffffffffffffffffffffffffffffffffffff1673ffffffffffffffffffffffffffffffffffffffff16815260200190815260200160002060009054906101000a900460ff166111f5576040517f08c379a00000000000000000000000000000000000000000000000000000000081526004016111ec9061313e565b60405180910390fd5b33600e826040516112069190612be1565b908152602001604051809103902060020160006101000a81548173ffffffffffffffffffffffffffffffffffffffff021916908373ffffffffffffffffffffffffffffffffffffffff16021790555050565b60006060806000600c60008673ffffffffffffffffffffffffffffffffffffffff1673ffffffffffffffffffffffffffffffffffffffff16815260200190815260200160002060000160009054906101000a900473ffffffffffffffffffffffffffffffffffffffff1673ffffffffffffffffffffffffffffffffffffffff168573ffffffffffffffffffffffffffffffffffffffff161461132f576040517f08c379a0000000000000000000000000000000000000000000000000000000008152600401611326906131aa565b60405180910390fd5b600c60008673ffffffffffffffffffffffffffffffffffffffff1673ffffffffffffffffffffffffffffffffffffffff16815260200190815260200160002060000160009054906101000a900473ffffffffffffffffffffffffffffffffffffffff16600c60008773ffffffffffffffffffffffffffffffffffffffff1673ffffffffffffffffffffffffffffffffffffffff168152602001908152602001600020600101600c60008873ffffffffffffffffffffffffffffffffffffffff1673ffffffffffffffffffffffffffffffffffffffff168152602001908152602001600020600201600c60008973ffffffffffffffffffffffffffffffffffffffff1673ffffffffffffffffffffffffffffffffffffffff1681526020019081526020016000206003015482805461146590612c93565b80601f016020809104026020016040519081016040528092919081815260200182805461149190612c93565b80156114de5780601f106114b3576101008083540402835291602001916114de565b820191906000526020600020905b8154815290600101906020018083116114c157829003601f168201915b505050505092508180546114f190612c93565b80601f016020809104026020016040519081016040528092919081815260200182805461151d90612c93565b801561156a5780601f1061153f5761010080835404028352916020019161156a565b820191906000526020600020905b81548152906001019060200180831161154d57829003601f168201915b5050505050915093509350935093509193509193565b606080600080600080606060098860405161159b9190612be1565b90815260200160405180910390206000016040516020016115bc919061324d565b60405160208183030381529060405280519060200120886040516020016115e39190612be1565b6040516020818303038152906040528051906020012014611639576040517f08c379a0000000000000000000000000000000000000000000000000000000008152600401611630906132b0565b60405180910390fd5b6009886040516116499190612be1565b908152602001604051809103902060000160098960405161166a9190612be1565b908152602001604051809103902060010160098a60405161168b9190612be1565b90815260200160405180910390206002015460098b6040516116ad9190612be1565b90815260200160405180910390206003015460098c6040516116cf9190612be1565b90815260200160405180910390206004015460098d6040516116f19190612be1565b90815260200160405180910390206005015460098e6040516117139190612be1565b908152602001604051809103902060060186805461173090612c93565b80601f016020809104026020016040519081016040528092919081815260200182805461175c90612c93565b80156117a95780601f1061177e576101008083540402835291602001916117a9565b820191906000526020600020905b81548152906001019060200180831161178c57829003601f168201915b505050505096508580546117bc90612c93565b80601f01602080910402602001604051908101604052809291908181526020018280546117e890612c93565b80156118355780601f1061180a57610100808354040283529160200191611835565b820191906000526020600020905b81548152906001019060200180831161181857829003601f168201915b5050505050955080805480602002602001604051908101604052809291908181526020016000905b8282101561190957838290600052602060002001805461187c90612c93565b80601f01602080910402602001604051908101604052809291908181526020018280546118a890612c93565b80156118f55780601f106118ca576101008083540402835291602001916118f5565b820191906000526020600020905b8154815290600101906020018083116118d857829003601f168201915b50505050508152602001906001019061185d565b5050505090509650965096509650965096509650919395979092949650565b600560003373ffffffffffffffffffffffffffffffffffffffff1673ffffffffffffffffffffffffffffffffffffffff16815260200190815260200160002060009054906101000a900460ff16156119b5576040517f08c379a00000000000000000000000000000000000000000000000000000000081526004016119ac9061331c565b60405180910390fd5b600060405180608001604052803373ffffffffffffffffffffffffffffffffffffffff16815260200185815260200184815260200183815250905080600b60003373ffffffffffffffffffffffffffffffffffffffff1673ffffffffffffffffffffffffffffffffffffffff16815260200190815260200160002060008201518160000160006101000a81548173ffffffffffffffffffffffffffffffffffffffff021916908373ffffffffffffffffffffffffffffffffffffffff1602179055506020820151816001019081611a8c9190612edc565b506040820151816002019081611aa29190612edc565b50606082015181600301559050506001600560003373ffffffffffffffffffffffffffffffffffffffff1673ffffffffffffffffffffffffffffffffffffffff16815260200190815260200160002060006101000a81548160ff02191690831515021790555050505050565b600660003373ffffffffffffffffffffffffffffffffffffffff1673ffffffffffffffffffffffffffffffffffffffff16815260200190815260200160002060009054906101000a900460ff16611b9a576040517f08c379a0000000000000000000000000000000000000000000000000000000008152600401611b9190613388565b60405180910390fd5b33600e82604051611bab9190612be1565b908152602001604051809103902060030160006101000a81548173ffffffffffffffffffffffffffffffffffffffff021916908373ffffffffffffffffffffffffffffffffffffffff16021790555050565b6060600982604051611c0f9190612be1565b9081526020016040518091039020600601805480602002602001604051908101604052809291908181526020016000905b82821015611cec578382906000526020600020018054611c5f90612c93565b80601f0160208091040260200160405190810160405280929190818152602001828054611c8b90612c93565b8015611cd85780601f10611cad57610100808354040283529160200191611cd8565b820191906000526020600020905b815481529060010190602001808311611cbb57829003601f168201915b505050505081526020019060010190611c40565b505050509050919050565b60606004805480602002602001604051908101604052809291908181526020016000905b82821015611dc7578382906000526020600020018054611d3a90612c93565b80601f0160208091040260200160405190810160405280929190818152602001828054611d6690612c93565b8015611db35780601f10611d8857610100808354040283529160200191611db3565b820191906000526020600020905b815481529060010190602001808311611d9657829003601f168201915b505050505081526020019060010190611d1b565b50505050905090565b60006040518060e0016040528089815260200188815260200187815260200186815260200185815260200184815260200183815250905080600989604051611e189190612be1565b90815260200160405180910390206000820151816000019081611e3b9190612edc565b506020820151816001019081611e519190612edc565b5060408201518160020155606082015181600301556080820151816004015560a0820151816005015560c0820151816006019080519060200190611e969291906121a4565b5090505060005b838110156121645760006040518060a001604052808b8152602001600160009054906101000a900473ffffffffffffffffffffffffffffffffffffffff1673ffffffffffffffffffffffffffffffffffffffff168152602001600073ffffffffffffffffffffffffffffffffffffffff168152602001600073ffffffffffffffffffffffffffffffffffffffff168152602001600073ffffffffffffffffffffffffffffffffffffffff16815250905080600e60098c604051611f609190612be1565b90815260200160405180910390206006018481548110611f8357611f826133a8565b5b90600052602060002001604051611f9a919061324d565b90815260200160405180910390206000820151816000019081611fbd9190612edc565b5060208201518160010160006101000a81548173ffffffffffffffffffffffffffffffffffffffff021916908373ffffffffffffffffffffffffffffffffffffffff16021790555060408201518160020160006101000a81548173ffffffffffffffffffffffffffffffffffffffff021916908373ffffffffffffffffffffffffffffffffffffffff16021790555060608201518160030160006101000a81548173ffffffffffffffffffffffffffffffffffffffff021916908373ffffffffffffffffffffffffffffffffffffffff16021790555060808201518160040160006101000a81548173ffffffffffffffffffffffffffffffffffffffff021916908373ffffffffffffffffffffffffffffffffffffffff1602179055509050506001600860098c6040516120f19190612be1565b90815260200160405180910390206006018481548110612114576121136133a8565b5b9060005260206000200160405161212b919061324d565b908152602001604051809103902060006101000a81548160ff02191690831515021790555050808061215c90613406565b915050611e9d565b506004889080600181540180825580915050600190039060005260206000200160009091909190915090816121999190612edc565b505050505050505050565b8280548282559060005260206000209081019282156121ec579160200282015b828111156121eb5782518290816121db9190612edc565b50916020019190600101906121c4565b5b5090506121f991906121fd565b5090565b5b8082111561221d57600081816122149190612221565b506001016121fe565b5090565b50805461222d90612c93565b6000825580601f1061223f575061225e565b601f01602090049060005260206000209081019061225d9190612261565b5b50565b5b8082111561227a576000816000905550600101612262565b5090565b6000604051905090565b600080fd5b600080fd5b600080fd5b600080fd5b6000601f19601f8301169050919050565b7f4e487b7100000000000000000000000000000000000000000000000000000000600052604160045260246000fd5b6122e58261229c565b810181811067ffffffffffffffff82111715612304576123036122ad565b5b80604052505050565b600061231761227e565b905061232382826122dc565b919050565b600067ffffffffffffffff821115612343576123426122ad565b5b61234c8261229c565b9050602081019050919050565b82818337600083830152505050565b600061237b61237684612328565b61230d565b90508281526020810184848401111561239757612396612297565b5b6123a2848285612359565b509392505050565b600082601f8301126123bf576123be612292565b5b81356123cf848260208601612368565b91505092915050565b6000602082840312156123ee576123ed612288565b5b600082013567ffffffffffffffff81111561240c5761240b61228d565b5b612418848285016123aa565b91505092915050565b600073ffffffffffffffffffffffffffffffffffffffff82169050919050565b600061244c82612421565b9050919050565b61245c81612441565b811461246757600080fd5b50565b60008135905061247981612453565b92915050565b60006020828403121561249557612494612288565b5b60006124a38482850161246a565b91505092915050565b6124b581612441565b82525050565b600081519050919050565b600082825260208201905092915050565b60005b838110156124f55780820151818401526020810190506124da565b60008484015250505050565b600061250c826124bb565b61251681856124c6565b93506125268185602086016124d7565b61252f8161229c565b840191505092915050565b6000819050919050565b61254d8161253a565b82525050565b600060608201905061256860008301866124ac565b818103602083015261257a8185612501565b90506125896040830184612544565b949350505050565b600060808201905081810360008301526125ab8187612501565b90506125ba60208301866124ac565b81810360408301526125cc8185612501565b905081810360608301526125e08184612501565b905095945050505050565b6125f48161253a565b81146125ff57600080fd5b50565b600081359050612611816125eb565b92915050565b6000806040838503121561262e5761262d612288565b5b600083013567ffffffffffffffff81111561264c5761264b61228d565b5b612658858286016123aa565b925050602061266985828601612602565b9150509250929050565b600060808201905061268860008301876124ac565b818103602083015261269a8186612501565b905081810360408301526126ae8185612501565b90506126bd6060830184612544565b95945050505050565b600060a08201905081810360008301526126e08188612501565b90506126ef60208301876124ac565b6126fc60408301866124ac565b61270960608301856124ac565b61271660808301846124ac565b9695505050505050565b60008060006060848603121561273957612738612288565b5b600084013567ffffffffffffffff8111156127575761275661228d565b5b612763868287016123aa565b935050602084013567ffffffffffffffff8111156127845761278361228d565b5b612790868287016123aa565b92505060406127a186828701612602565b9150509250925092565b600081519050919050565b600082825260208201905092915050565b6000819050602082019050919050565b600082825260208201905092915050565b60006127f3826124bb565b6127fd81856127d7565b935061280d8185602086016124d7565b6128168161229c565b840191505092915050565b600061282d83836127e8565b905092915050565b6000602082019050919050565b600061284d826127ab565b61285781856127b6565b935083602082028501612869856127c7565b8060005b858110156128a557848403895281516128868582612821565b945061289183612835565b925060208a0199505060018101905061286d565b50829750879550505050505092915050565b600060e08201905081810360008301526128d1818a612501565b905081810360208301526128e58189612501565b90506128f46040830188612544565b6129016060830187612544565b61290e6080830186612544565b61291b60a0830185612544565b81810360c083015261292d8184612842565b905098975050505050505050565b600060208201905081810360008301526129558184612842565b905092915050565b600067ffffffffffffffff821115612978576129776122ad565b5b602082029050602081019050919050565b600080fd5b60006129a161299c8461295d565b61230d565b905080838252602082019050602084028301858111156129c4576129c3612989565b5b835b81811015612a0b57803567ffffffffffffffff8111156129e9576129e8612292565b5b8086016129f689826123aa565b855260208501945050506020810190506129c6565b5050509392505050565b600082601f830112612a2a57612a29612292565b5b8135612a3a84826020860161298e565b91505092915050565b600080600080600080600060e0888a031215612a6257612a61612288565b5b600088013567ffffffffffffffff811115612a8057612a7f61228d565b5b612a8c8a828b016123aa565b975050602088013567ffffffffffffffff811115612aad57612aac61228d565b5b612ab98a828b016123aa565b9650506040612aca8a828b01612602565b9550506060612adb8a828b01612602565b9450506080612aec8a828b01612602565b93505060a0612afd8a828b01612602565b92505060c088013567ffffffffffffffff811115612b1e57612b1d61228d565b5b612b2a8a828b01612a15565b91505092959891949750929550565b7f4e6f7420616e20617574686f73697a656420437573746f6d6572000000000000600082015250565b6000612b6f601a836124c6565b9150612b7a82612b39565b602082019050919050565b60006020820190508181036000830152612b9e81612b62565b9050919050565b600081905092915050565b6000612bbb826124bb565b612bc58185612ba5565b9350612bd58185602086016124d7565b80840191505092915050565b6000612bed8284612bb0565b915081905092915050565b7f4e6f7420616e206175727468656e74696320437573746f6d6572000000000000600082015250565b6000612c2e601a836124c6565b9150612c3982612bf8565b602082019050919050565b60006020820190508181036000830152612c5d81612c21565b9050919050565b7f4e487b7100000000000000000000000000000000000000000000000000000000600052602260045260246000fd5b60006002820490506001821680612cab57607f821691505b602082108103612cbe57612cbd612c64565b5b50919050565b7f437573746f6d657220616c726561647920726567697374657265640000000000600082015250565b6000612cfa601b836124c6565b9150612d0582612cc4565b602082019050919050565b60006020820190508181036000830152612d2981612ced565b9050919050565b60008190508160005260206000209050919050565b60006020601f8301049050919050565b600082821b905092915050565b600060088302612d927fffffffffffffffffffffffffffffffffffffffffffffffffffffffffffffffff82612d55565b612d9c8683612d55565b95508019841693508086168417925050509392505050565b6000819050919050565b6000612dd9612dd4612dcf8461253a565b612db4565b61253a565b9050919050565b6000819050919050565b612df383612dbe565b612e07612dff82612de0565b848454612d62565b825550505050565b600090565b612e1c612e0f565b612e27818484612dea565b505050565b5b81811015612e4b57612e40600082612e14565b600181019050612e2d565b5050565b601f821115612e9057612e6181612d30565b612e6a84612d45565b81016020851015612e79578190505b612e8d612e8585612d45565b830182612e2c565b50505b505050565b600082821c905092915050565b6000612eb360001984600802612e95565b1980831691505092915050565b6000612ecc8383612ea2565b9150826002028217905092915050565b612ee5826124bb565b67ffffffffffffffff811115612efe57612efd6122ad565b5b612f088254612c93565b612f13828285612e4f565b600060209050601f831160018114612f465760008415612f34578287015190505b612f3e8582612ec0565b865550612fa6565b601f198416612f5486612d30565b60005b82811015612f7c57848901518255600182019150602085019450602081019050612f57565b86831015612f995784890151612f95601f891682612ea2565b8355505b6001600288020188555050505b505050505050565b7f4e6f7420616e206175727468656e7469632072657461696c6572000000000000600082015250565b6000612fe4601a836124c6565b9150612fef82612fae565b602082019050919050565b6000602082019050818103600083015261301381612fd7565b9050919050565b7f4e6f7420616e206175727468656e746963206d65646963696e65206964000000600082015250565b6000613050601d836124c6565b915061305b8261301a565b602082019050919050565b6000602082019050818103600083015261307f81613043565b9050919050565b7f53686f706b656570657220616c72656164792072656769737465726564000000600082015250565b60006130bc601d836124c6565b91506130c782613086565b602082019050919050565b600060208201905081810360008301526130eb816130af565b9050919050565b7f4e6f7420616e20617574686f73697a65642052657461696c6572000000000000600082015250565b6000613128601a836124c6565b9150613133826130f2565b602082019050919050565b600060208201905081810360008301526131578161311b565b9050919050565b7f4e6f7420616e206175727468656e7469632053686f706b656570657200000000600082015250565b6000613194601c836124c6565b915061319f8261315e565b602082019050919050565b600060208201905081810360008301526131c381613187565b9050919050565b600081546131d781612c93565b6131e18186612ba5565b945060018216600081146131fc576001811461321157613244565b60ff1983168652811515820286019350613244565b61321a85612d30565b60005b8381101561323c5781548189015260018201915060208101905061321d565b838801955050505b50505092915050565b600061325982846131ca565b915081905092915050565b7f4e6f7420616e206175727468656e746963206d65646963696e65000000000000600082015250565b600061329a601a836124c6565b91506132a582613264565b602082019050919050565b600060208201905081810360008301526132c98161328d565b9050919050565b7f52657461696c657220616c726561647920726567697374657265640000000000600082015250565b6000613306601b836124c6565b9150613311826132d0565b602082019050919050565b60006020820190508181036000830152613335816132f9565b9050919050565b7f4e6f7420616e20617574686f73697a65642053686f706b656570657200000000600082015250565b6000613372601c836124c6565b915061337d8261333c565b602082019050919050565b600060208201905081810360008301526133a181613365565b9050919050565b7f4e487b7100000000000000000000000000000000000000000000000000000000600052603260045260246000fd5b7f4e487b7100000000000000000000000000000000000000000000000000000000600052601160045260246000fd5b60006134118261253a565b91507fffffffffffffffffffffffffffffffffffffffffffffffffffffffffffffffff8203613443576134426133d7565b5b60018201905091905056fea2646970667358221220aaad5a53ff7d15c7d69c23d5c860744b75a2249a8d19823fb5091b182c17826f64736f6c63430008120033",
  "linkReferences": {},
  "deployedLinkReferences": {}
}